:020000040000FA
:100000008FEF05F039EF08F06EEF06F0D9CFE5FF7E
:10001000E1CFD9FF00C0E5FF01C0E5FF02C0E5FF69
:1000200003C0E5FF04C0E5FF05C0E5FF06C0E5FF2E
:1000300007C0E5FF0001B8510001B919FBE0B8C0E5
:1000400000F0B8C001F0026A0001B8BF0268014ABE
:10005000022A000EE56E0A0EE56E0250E56E0150B2
:10006000E56ECEEC03F0016EF3CF02F0040EE12654
:1000700001500001B91901E16FD00150030DF45096
:1000800001BE0308036EF3CF02F0800E0226000EBD
:10009000032202C0E9FF03C0EAFFEECF02F0EECF79
:1000A00003F0EFCF04F0050E0226000E0322042217
:1000B00002C0E9FF03C0F3FF0450E6EC07F0026E54
:1000C000F3CF03F00050030DF45000BE0308056E9B
:1000D000F3CF04F0800E0426000E052204C0E9FFD1
:1000E00005C0EAFFEECF04F0EECF05F0EFCF06F04B
:1000F000050E0426000E0522062204C0E9FF05C0F5
:10010000F3FF0650E6EC07F0046EF3CF05F0035062
:10011000800FF36E0550800FF35C02E10450025C27
:1001200002E201C000F001C002F0036A01BE0368F0
:10013000024A032A000EE56E0A0EE56E0350E56ED4
:100140000250E56ECEEC03F0026EF3CF03F0040E26
:10015000E1260250016E8CD70050030DF45000BE12
:100160000308016EF3CF00F0800E0026000E01227E
:1001700000C0E9FF01C0EAFFEECF02F0EECF03F0CE
:10018000EFCF04F00001B851030DF4500001B8BFE7
:100190000308066EF3CF05F0800E0526000E06223A
:1001A00005C0E9FF06C0EAFFEECF05F0EECF06F08E
:1001B000EFCF07F000C0E9FF01C0EAFF05C0EEFF86
:1001C00006C0EEFF07C0EFFF0001B851030DF45069
:1001D0000001B8BF0308016EF3CF00F0800E0026C7
:1001E000000E012200C0E9FF01C0EAFF02C0EEFFDD
:1001F00003C0EEFF04C0EFFF0001B851030DF4503F
:100200000001B8BF0308016EF3CF00F0800E002696
:10021000000E012200C0E9FF01C0EAFFEECF00F0AE
:10022000EECF01F0EFCF02F00050050F036E000E8D
:100230000120046E000E0220056E03C0E9FF04C019
:10024000F3FF0550E6EC07F0036EF3CF04F0045023
:10025000800F800F02E1010E035CCEE200C0E9FFD7
:1002600001C0F3FF02509BEC07F0006EF3CF01F0EA
:10027000F4CF02F0F2CFE5FFF29E0500980EFD6E7E
:10028000020EFE6E000EFF6EE4BEF28E02C0FBFF99
:1002900001C0FAFF0050F96E006E0050020A22E120
:1002A0000001B851030DF4500001B8BF0308016EFE
:1002B000F3CF00F0800E0026000E012200C0E9FFFF
:1002C00001C0EAFFEECF00F0EECF01F0EFCF02F079
:1002D0000250E56E0150E56E0050E56E80EC02F0D4
:1002E000030EE126B8C000F0016A0001B8BF016842
:1002F000004A012A000EE56E0A0EE56E0150E56E19
:100300000050E56ECEEC03F0006EF3CF01F0040E6A
:10031000E12600500001B86F8DD6E4CF07F0E4CF9E
:1003200006F0E4CF05F0E4CF04F0E4CF03F0E4CF2F
:1003300002F0E4CF01F0E4CF00F0E4CFD9FF1200E7
:1003400026EC06F0006EF3CF01F0F4CF02F000507F
:10035000040F036E000E0120046E000E0220056ED5
:1003600003C0E9FF04C0F3FF05509BEC07F0036EE8
:10037000F3CF04F0F4CF05F0000EE56E000EE56E4D
:10038000000EE56EF2CFE5FFF29E0500A80EFD6EB1
:10039000030EFE6E000EFF6EE4BEF28E05C0FBFF84
:1003A00004C0FAFF0350F96E030EE126002A02E3AF
:1003B000014A022A00C0E9FF01C0F3FF02509BEC92
:1003C00007F0036EF3CF04F0F4CF05F0030E03261D
:1003D000000E0422052203C0E9FF04C0F3FF05500C
:1003E0009BEC07F0036EF3CF04F0F4CF05F0000EA2
:1003F000E56E000EE56E450EE56EF2CFE5FFF29E6E
:1004000005001E0EFD6E040EFE6E000EFF6EE4BEB5
:10041000F28E05C0FBFF04C0FAFF0350F96E030E15
:10042000E12600C0E9FF01C0F3FF02509BEC07F09A
:10043000036EF3CF04F0F4CF05F0030E0326000E95
:100440000422052203C0E9FF04C0F3FF05509BEC22
:1004500007F0036EF3CF04F0F4CF05F0000EE56E65
:10046000000EE56E440EE56EF2CFE5FFF29E05004C
:100470008C0EFD6E040EFE6E000EFF6EE4BEF28E5C
:1004800005C0FBFF04C0FAFF0350F96E030EE1261E
:1004900000C0E9FF01C0F3FF02509BEC07F0006EC3
:1004A000F3CF01F0F4CF02F0030E0026000E01227C
:1004B000022200C0E9FF01C0F3FF02509BEC07F0ED
:1004C000006EF3CF01F0F4CF02F0000EE56E000EE7
:1004D000E56E550EE56EF2CFE5FFF29E0500FA0ED1
:1004E000FD6E040EFE6E000EFF6EE4BEF28E02C0C4
:1004F000FBFF01C0FAFF0050F96E030EE126120067
:10050000D9CFE5FFE1CFD9FF00C0E5FF01C0E5FF8E
:1005100002C0E5FF03C0E5FF04C0E5FF05C0E5FF3D
:1005200006C0E5FF07C0E5FF020EDBCF00F0030EBB
:10053000DBCF01F0040EDBCF02F0B9C003F0046A98
:100540000001B9BF0468034A042A000EE56E0A0ED2
:10055000E56E0450E56E0350E56ECEEC03F0036EDD
:10056000F3CF04F0040EE126B8C005F0066A0001DE
:10057000B8BF06680350051804E10450061801E1ED
:1005800079D00001B951030DF4500001B9BF03083F
:10059000046EF3CF03F0800E0326000E042203C086
:1005A000E9FF04C0EAFF00C0EEFF01C0EEFF02C099
:1005B000EFFF0001B951030DF4500001B9BF03086A
:1005C000046EF3CF03F0800E0326000E042203C056
:1005D000E9FF04C0EAFFEECF03F0EECF04F0EFCF67
:1005E00005F0050E0326000E0422052203C0E9FFD4
:1005F00004C0F3FF0550E6EC07F0066EF3CF07F0FA
:10060000030E0026000E0122022200C0E9FF01C0F5
:10061000F3FF0250E6EC07F0006EF3CF01F000505C
:1006200006260150072206C0E5FF07C0F4FF03C0FD
:10063000E9FF04C0F3FF055049EC08F0B9C000F031
:10064000016A0001B9BF0168004A012A000EE56E87
:100650000A0EE56E0150E56E0050E56ECEEC03F03B
:10066000006EF3CF01F0040EE12600500001B96FD7
:10067000E86A01D0010EE4CF07F0E4CF06F0E4CF42
:1006800005F0E4CF04F0E4CF03F0E4CF02F0E4CFD0
:1006900001F0E4CF00F0E4CFD9FF1200D9CFE5FF9D
:1006A000E1CFD9FF00C0E5FF01C0E5FF02C0E5FFD3
:1006B00003C0E5FF04C0E5FF05C0E5FFB8C000F0DA
:1006C00000C001F0026AB9C003F0046A0001B9BFBA
:1006D00004680150031804E10250041801E14FD0EE
:1006E0000050030DF450026EF3CF01F0800E01268E
:1006F000000E022201C0E9FF02C0EAFFEECF01F0C6
:10070000EECF02F0EFCF03F0050E0126000E02221D
:10071000032201C0E9FF02C0F3FF0350E6EC07F03B
:10072000046EF3CF05F00550800FF60F02E1D10EF5
:10073000045C0EE3FF0E0426052204C0E5FF05C09D
:10074000F4FF01C0E9FF02C0F3FF035049EC08F0D9
:1007500000C001F0026A014A022A000EE56E0A0E8C
:10076000E56E0250E56E0150E56ECEEC03F0016ED1
:10077000F3CF02F0040EE1260150006EA1D7E4CFC2
:1007800005F0E4CF04F0E4CF03F0E4CF02F0E4CFCF
:1007900001F0E4CF00F0E4CFD9FF1200D9CFE5FF9C
:1007A000E1CFD9FF00C0E5FF01C0E5FF02C0E5FFD2
:1007B00003C0E5FF04C0E5FF05C0E5FF06C0E5FF97
:1007C000020EDBCF00F0030EDBCF01F0040EDBCF17
:1007D00002F0050EDBCF03F0D88001AED890046A9A
:1007E0000436045007E0011C066E001C056E054A25
:1007F000062A04D000C005F001C006F0D88003AE80
:10080000D89007E3031C016E021C006E004A012A07
:1008100004D002C000F003C001F00150E56E0050AA
:10082000E56E0650E56E0550E56E3CEC04F0006E9A
:10083000F3CF01F0040EE12604500AE0011C036E20
:10084000001C026E024A032A03C0F3FF025003D0C9
:1008500001C0F3FF0050E4CF06F0E4CF05F0E4CF91
:1008600004F0E4CF03F0E4CF02F0E4CF01F0E4CFF2
:1008700000F0E4CFD9FF1200D9CFE5FFE1CFD9FFD7
:1008800000C0E5FF01C0E5FF02C0E5FF03C0E5FFD2
:1008900004C0E5FF05C0E5FF06C0E5FF020EDBCFA3
:1008A00000F0030EDBCF01F0040EDBCF02F0050EEB
:1008B000DBCF03F0046A056A0350800BE844066E40
:1008C000065011E10250022603360350015C02E19A
:1008D0000250005C04E2D8900332023204D0052AB0
:1008E00005C004F0E9D70350015C02E10250005C4E
:1008F00004E30250005E0350015AD89003320232E2
:1009000004C005F004060550EEE101C0F3FF0050FD
:10091000E4CF06F0E4CF05F0E4CF04F0E4CF03F039
:10092000E4CF02F0E4CF01F0E4CF00F0E4CFD9FF50
:100930001200D9CFE5FFE1CFD9FF00C0E5FFB6EC4B
:1009400007F0B6EC07F0B6EC07F0B6EC07F0B6EC43
:1009500007F00FEE96F0EFCF00F000900FEE96F05C
:1009600000C0EFFF0FEE96F0EFCF00F000920FEE19
:1009700096F000C0EFFF0FEE96F0EFCF00F000947E
:100980000FEE96F000C0EFFF0FEE95F0000EEF6E49
:100990000FEEC1F00E0EEF6E380EE56E3FEC05F077
:1009A000E652060EE56E3FEC05F0E6520F0EE56EE0
:1009B0003FEC05F0E652030EE56E3FEC05F0E65223
:1009C000010EE56E3FEC05F0E652800EE56E3FEC61
:1009D00005F0E652E4CF00F0E4CFD9FF1200D9CF02
:1009E000E5FFE1CFD9FF00C0E5FF01C0E5FF020E42
:1009F000DBCF00F00FEE84F0EFCF01F001800FEEBF
:100A000084F001C0EFFF0FEE84F0EFCF01F001940E
:100A10000FEE84F001C0EFFF0FEE83F000C0EFFF98
:100A20000FEE84F0EFCF00F000820FEE84F000C0F4
:100A3000EFFFCFEC07F00FEE84F0EFCF00F0009265
:100A40000FEE84F000C0EFFF0FEE84F0EFCF00F068
:100A500000900FEE84F000C0EFFF0FEE84F0EFCFB8
:100A600000F000940FEE84F000C0EFFFCFEC07F031
:100A7000E4CF01F0E4CF00F0E4CFD9FF1200D9CFEA
:100A8000E5FFE1CFD9FF00C0E5FF01C0E5FF020EA1
:100A9000DBCF00F00FEE84F0EFCF01F001900FEE0E
:100AA00084F001C0EFFF0FEE84F0EFCF01F001946E
:100AB0000FEE84F001C0EFFF0FEE83F000C0EFFFF8
:100AC0000FEE84F0EFCF00F000820FEE84F000C054
:100AD000EFFFB6EC07F00FEE84F0EFCF00F00092DE
:100AE0000FEE84F000C0EFFF0FEE84F0EFCF00F0C8
:100AF00000900FEE84F000C0EFFF0FEE84F0EFCF18
:100B000000F000940FEE84F000C0EFFFB6EC07F0A9
:100B1000E4CF01F0E4CF00F0E4CFD9FF120011EEF2
:100B2000FFF021EEFFF0F86AA68EA69CD40EF66EBA
:100B3000100EF76E000EF86E0900F5CF05F00900F3
:100B4000F5CF06F034D00900F5CF00F00900F5CF5D
:100B500001F00900F5CF02F009000900F5CFE9FF27
:100B60000900F5CFEAFF090009000900F5CF03F0FD
:100B70000900F5CF04F009000900F6CF07F0F7CF20
:100B800008F0F8CF09F000C0F6FF01C0F7FF02C07F
:100B9000F8FF03D00900F5CFEEFF0306FBE20406E1
:100BA000F9E207C0F6FF08C0F7FF09C0F8FF050625
:100BB000CAE20606C8E2A0EC01F0FFD7D9CFE5FFF4
:100BC000E1CFD9FF00C0E5FF01C0E5FF02C0E5FFAE
:100BD000E00E0001A26F0D0E0001A36F000E0001D8
:100BE000A46FF40E0001AC6F0E0E0001AD6F000E8D
:100BF0000001AE6FF80E0001AF6F0F0E0001B06F75
:100C0000000E0001B16F000E016EAC0E006E800E82
:100C1000026E005000019F6F01500001A06F025052
:100C20000001A16F000E016E9E0E006E800E026E1E
:100C300002C0F4FF01C0F3FF0050E4CF02F0E4CFA4
:100C400001F0E4CF00F0E4CFD9FF1200D9CFE5FFE7
:100C5000E1CFD9FF00C0E5FF01C0E5FF02C0E5FF1D
:100C6000280E0001A96F0E0E0001AA6F000E0001F0
:100C7000AB6FB00E0001B26F0E0E0001B36F000E2D
:100C80000001B46F6C0E0001B56F0E0E0001B66F5F
:100C9000000E0001B76F000E016EB20E006E800EE6
:100CA000026E00500001A66F01500001A76F0250B4
:100CB0000001A86F000E016EA50E006E800E026E80
:100CC00002C0F4FF01C0F3FF0050E4CF02F0E4CF14
:100CD00001F0E4CF00F0E4CFD9FF1200D8CFE5FF58
:100CE000E0CFE5FFE56EF3CFE5FFF4CFE5FFE9CF19
:100CF000E5FFEACFE5FFFACFE5FFFBCFE5FFD9CF70
:100D0000E5FFE1CFD9FF00C0E5FF0FEEF2F0EFCF36
:100D100000F000A413D00FEED7F0B10EEF6E0FEE7F
:100D2000D6F0DF0EEF6E4EEC03F00FEEF2F0EFCFE9
:100D300000F000940FEEF2F000C0EFFFE4CF00F0FF
:100D4000E4CFD9FFE4CFFBFFE4CFFAFFE4CFEAFF23
:100D5000E4CFE9FFE4CFF4FFE4CFF3FFE450E4CFC6
:100D6000E0FFE4CFD8FF1000D9CFE5FFE1CFD9FFF6
:100D700000C0E5FF0FEEF2F0EFCF00F0008A0FEEBB
:100D8000F2F000C0EFFF0FEEF2F0EFCF00F0008CBA
:100D90000FEEF2F000C0EFFF0FEEF2F0EFCF00F039
:100DA000008E0FEEF2F000C0EFFF0FEED0F0EFCFAD
:100DB00000F0008E0FEED0F000C0EFFF0FEED5F088
:100DC000080EEF6E0FEED5F0EFCF00F0008E0FEEB5
:100DD000D5F000C0EFFFE4CF00F0E4CFD9FF120060
:100DE000D9CFE5FFE1CFD9FF00C0E5FF01C0E5FFA6
:100DF00002C0E5FF020EDBCF00F0030EDBCF01F0F7
:100E0000040EDBCF02F00FEE95F0000EEF6E0050F7
:100E100000019E6F010EE4CF02F0E4CF01F0E4CFB9
:100E200000F0E4CFD9FF1200D9CFE5FFE1CFD9FF21
:100E300000C0E5FF01C0E5FF02C0E5FF020EDBCF09
:100E400000F0030EDBCF01F0040EDBCF02F099ECD3
:100E500004F000500001A56F010EE4CF02F0E4CFD2
:100E600001F0E4CF00F0E4CFD9FF1200D9CFE5FFC5
:100E7000E1CFD9FF00C0E5FF01C0E5FF02C0E5FFFB
:100E8000020EDBCF00F0030EDBCF01F0040EDBCF50
:100E900002F00050E56EEFEC04F0E652010EE4CFF4
:100EA00002F0E4CF01F0E4CF00F0E4CFD9FF12006C
:100EB000D9CFE5FFE1CFD9FF00C0E5FF01C0E5FFD5
:100EC00002C0E5FF020EDBCF00F0030EDBCF01F026
:100ED000040EDBCF02F00050E56E3FEC05F0E65269
:100EE000010EE4CF02F0E4CF01F0E4CF00F0E4CF54
:100EF000D9FF1200D9CFE5FFE1CFD9FF00C0E5FF50
:100F000001C0E5FF02C0E5FF020EDBCF00F0030EDB
:100F1000DBCF01F0040EDBCF02F00FEE83F000C058
:100F2000EFFF010EE4CF02F0E4CF01F0E4CF00F0D8
:100F3000E4CFD9FF1200E8AE08D0F3CFEAFFEE50BD
:100F4000EECFF3FFEECFF4FF1200E8BC71EF08F034
:100F5000E9CFF6FFF3CFF7FFF86E0900F55009006F
:100F6000F5CFF3FF0900F5CFF4FF1200D9CFE5FF6D
:100F7000E1CFD9FF00C0E5FF01C0E5FFC80E006E5C
:100F8000CFEC07F00050016E0104006E0050F8E154
:100F9000E4CF01F0E4CF00F0E4CFD9FF1200D9CFC5
:100FA000E5FFE1CFD9FF00C0E5FF01C0E5FF190E65
:100FB000006E0050016E0104006E0050FAE1E4CFB3
:100FC00001F0E4CF00F0E4CFD9FF1200E8AE06D084
:100FD000F3CFEAFFEE50EECFF3FF1200E8BC02EFD2
:100FE00000F0E9CFF6FFF3CFF7FFF86E0900F550F8
:100FF0000900F5CFF3FF1200D9CFE5FFE1CFD9FF0C
:1010000000C0E5FF0FEE83F0EFCF00F0001E0FEE03
:1010100083F000C0EFFF010EE4CF00F0E4CFD9FF72
:101020001200F2CFEAFFF29EA69EA69CA684E9CF0C
:10103000A9FFE4CFA8FF62EC08F0F4CFA8FF62ECB0
:1010400008F0A694EABEF28E1200F2CFF6FFF29EEE
:10105000A69EA69CE9CFA9FFA680A850A92AA68093
:10106000A8CFF3FFA92AA680A8CFF4FFF6BEF28E80
:101070001200F2CFF6FFF29EA69EA69CE9CFA9FF32
:10108000A680A850A92AA680A8CFF3FFF6BEF28EAC
:101090001200E8AE07D0F3CFEAFFE4CFEEFFF4CFC3
:1010A000EEFF1200E8BC73EF08F01200D9CFE5FFA5
:1010B000E1CFD9FF0001B86B0001B96BE86AE4CF5A
:1010C000D9FF1200550EA76EAA0EA76EA682A6B271
:1010D000FED7A94A0100EA100000BA000000010092
:0C10E000000025EF08F011EF08F0000000
:020000040030CA
:0100010002FC
:0100030000FC
:020005008381F5
:00000001FF
