:020000040000FA
:10000000CEEF04F0D9CFE5FFE1CFD9FF00C0E5FF87
:1000100001C0E5FF02C0E5FF03C0E5FF04C0E5FF46
:1000200005C0E5FF06C0E5FF07C0E5FF08C0E5FF26
:1000300009C0E5FF0AC0E5FF0BC0E5FF0CC0E5FF06
:100040000DC0E5FF0EC0E5FF0FC0E5FF10C0E5FFE6
:10005000020EDBCF00F0030EDBCF01F0040EDBCF8E
:1000600002F0050EDBCF03F0060EDBCF04F0070E27
:10007000DBCF05F0080EDBCF06F0090EDBCF07F073
:10008000086A096A0A6A0B6A00500001A66F0150EB
:10009000A76F0250A86F0350A96F04500001AA6F08
:1000A0000550AB6F0650AC6F0750AD6F0001A65105
:1000B000A711A811A91109E1ADC0E9FFACC0F4FF77
:1000C000ABC0F3FF0001AA5144D10001AA51AB110A
:1000D000AC11AD1109E1A9C0E9FFA8C0F4FFA7C0A8
:1000E000F3FF0001A65135D10001A835A935006EF6
:1000F000016A0136026A036A016A026A036A000140
:10010000AC35AD35026E190F046E000E0320800F62
:10011000F36E0150800FF35C02E10050045C09E2D1
:10012000A9C0E9FFA8C0F4FFA7C0F3FF0001A651D2
:1001300010D10050190F046E000E0120800FF36ED5
:100140000350800FF35C02E10250045C09E2ADC091
:10015000E9FFACC0F4FFABC0F3FF0001AA51F9D036
:100160000001A651046EA751056E7F0EA815066EFC
:10017000076A068E0001AA510C6EAB510D6E7F0E00
:10018000AC150E6E0F6A0E8E0001A951800BE8446B
:10019000106E10500AE0071E061E051E046C05E1D5
:1001A000052A03E1062AD8B4072A0001AD51800BC5
:1001B000E844106E10500AE00F1E0E1E0D1E0C6C4F
:1001C00005E10D2A03E10E2AD8B40F2A0350800F4F
:1001D000F36E0150800FF35C02E10050025C1BE201
:1001E0000250005C106E03500158105032E00BE6D4
:1001F000E86CD8900FBED8800F320E320D320C3220
:10020000010FF8E326D0D8900C360D360E360F3697
:10021000010FFAE31ED00050025C106E015003582B
:10022000105013E00BE6E86CD89007BED880073278
:10023000063205320432010FF8E307D0D8900436B5
:10024000053606360736010FFAE302C000F003C098
:1002500001F00C5004260D5005220E5006220F50BE
:100260000722D88007AED89010E3071E061E051E91
:10027000046C05E1052A03E1062AD8B4072A086AB6
:10028000096A0A6A800E0B6E0AD004500510061027
:10029000071005E1E96AF46AF36AE86A5AD0045083
:1002A00006500C6E07500D6E0CBE0BD00D5009E1C0
:1002B00004500426053606360736FF0E00260122B6
:1002C000EED70450026E0550036E06500C6E0750B8
:1002D0000D6E10E004A006D0020E0426000E0522CA
:1002E0000622072207340732063205320432004A5A
:1002F000012AE7D70250046E0350056E7F0E0C14DE
:10030000066E0D50076EE86A013000300F6E0E6AFF
:100310000E320C6A0C50081209120E500A120F50BD
:100320000B12045008120550091206500A12075009
:100330000B1208500001A66F0950A76F0A50A86F52
:100340000B50A96FA9C0E9FFA8C0F4FFA7C0F3FF35
:10035000A651E4CF10F0E4CF0FF0E4CF0EF0E4CFDD
:100360000DF0E4CF0CF0E4CF0BF0E4CF0AF0E4CFD3
:1003700009F0E4CF08F0E4CF07F0E4CF06F0E4CFD3
:1003800005F0E4CF04F0E4CF03F0E4CF02F0E4CFD3
:1003900001F0E4CF00F0E4CFD9FF1200D9CFE5FFA0
:1003A000E1CFD9FF00C0E5FF01C0E5FF02C0E5FFD6
:1003B00003C0E5FF04C0E5FF0001B7510001B81913
:1003C00001E176D00001B751030DF4500001B7BF31
:1003D0000308016EF3CF00F0800E0026000E01220C
:1003E00000C0E9FF01C0EAFFEECF00F0EECF01F060
:1003F000EFCF02F000C0E9FF01C0F3FF02501DEC97
:1004000005F0006EF3CF01F0F4CF02F0F2CFE5FF7C
:10041000F29E0500300EFD6E040EFE6E000EFF6EA5
:10042000E4BEF28E02C0FBFF01C0FAFF0050F96E7D
:10043000006E0050020A22E10001B751030DF45092
:100440000001B7BF0308016EF3CF00F0800E002655
:10045000000E012200C0E9FF01C0EAFFEECF00F06C
:10046000EECF01F0EFCF02F00250E56E0150E56EE5
:100470000050E56E2BEC03F0030EE126B7C000F050
:10048000016A0001B7BF0168004A012A000EE56E4B
:100490000A0EE56E0150E56E0050E56EAFEC03F01C
:1004A000006EF3CF01F0040EE12600500001B76F9B
:1004B000006A016A026A036A3F0EE56E800EE56E0D
:1004C000000EE56E000EE56E0350E56E0250E56E1F
:1004D0000150E56E0050E56E02EC00F0006EF3CFC7
:1004E00001F0F4CF02F0E9CF03F0080EE126440E4C
:1004F000E56E7A0EE56E000EE56E000EE56E0350B9
:10050000E56E0250E56E0150E56E0050E56E9CEC24
:1005100002F0046E080EE1260450CEE14DD7E4CF80
:1005200004F0E4CF03F0E4CF02F0E4CF01F0E4CF35
:1005300000F0E4CFD9FF1200D9CFE5FFE1CFD9FF1A
:1005400000C0E5FF01C0E5FF02C0E5FF03C0E5FF15
:1005500004C0E5FF05C0E5FF06C0E5FF07C0E5FFF5
:10056000020EDBCF00F0030EDBCF01F0040EDBCF79
:1005700002F0050EDBCF03F0060EDBCF04F0070E12
:10058000DBCF05F0080EDBCF06F0090EDBCF07F05E
:10059000005000019E6F01509F6F0250A06F0350EA
:1005A000A16F04500001A26F0550A36F0650A46F05
:1005B0000750A56FD8800001A1AFD8901FE3D88065
:1005C0000001A5AFD8901AE3A551800FF36E00018A
:1005D000A151800FF35C0DE1A0510001A45D09E180
:1005E00000019F510001A35D04E100019E51000143
:1005F000A25D02E2010E1CD0E86A1AD00001A151EE
:10060000800FF36E0001A551800FF35C0DE1A45142
:100610000001A05D09E10001A35100019F5D04E11B
:100620000001A25100019E5D02E2010E01D0E86AC4
:10063000E4CF07F0E4CF06F0E4CF05F0E4CF04F018
:10064000E4CF03F0E4CF02F0E4CF01F0E4CF00F018
:10065000E4CFD9FF1200D9CFE5FFE1CFD9FF00C029
:10066000E5FF01C0E5FF02C0E5FF03C0E5FF04C0F0
:10067000E5FF05C0E5FF06C0E5FF020EDBCF00F099
:10068000030EDBCF01F0040EDBCF02F0B8C003F0A5
:10069000046A0001B8BF0468034A042A000EE56E2C
:1006A0000A0EE56E0450E56E0350E56EAFEC03F004
:1006B000036EF3CF04F0040EE126B7C005F0066A1E
:1006C0000001B7BF06680350051803E1045006187F
:1006D00034E00001B851030DF4500001B8BF030825
:1006E000046EF3CF03F0800E0326000E042203C035
:1006F000E9FF04C0EAFF00C0EEFF01C0EEFF02C048
:10070000EFFFB8C000F0016A0001B8BF0168004AFD
:10071000012A000EE56E0A0EE56E0150E56E0050EE
:10072000E56EAFEC03F0006EF3CF01F0040EE126AE
:1007300000500001B86FE86A01D0010EE4CF06F066
:10074000E4CF05F0E4CF04F0E4CF03F0E4CF02F00F
:10075000E4CF01F0E4CF00F0E4CFD9FF1200D9CF0D
:10076000E5FFE1CFD9FF00C0E5FF01C0E5FF02C012
:10077000E5FF03C0E5FF04C0E5FF05C0E5FF06C0D7
:10078000E5FF020EDBCF00F0030EDBCF01F0040E1D
:10079000DBCF02F0050EDBCF03F0D88001AED8909E
:1007A000046A0436045007E0011C066E001C056E46
:1007B000054A062A04D000C005F001C006F0D88022
:1007C00003AED89007E3031C016E021C006E004AC2
:1007D000012A04D002C000F003C001F00150E56E10
:1007E0000050E56E0650E56E0550E56E1DEC04F018
:1007F000006EF3CF01F0040EE12604500AE0011C64
:10080000036E001C026E024A032A03C0F3FF02506B
:1008100003D001C0F3FF0050E4CF06F0E4CF05F0B1
:10082000E4CF04F0E4CF03F0E4CF02F0E4CF01F032
:10083000E4CF00F0E4CFD9FF1200D9CFE5FFE1CF3C
:10084000D9FF00C0E5FF01C0E5FF02C0E5FF03C01E
:10085000E5FF04C0E5FF05C0E5FF06C0E5FF020EA9
:10086000DBCF00F0030EDBCF01F0040EDBCF02F094
:10087000050EDBCF03F0046A056A0350800BE844E1
:10088000066E065011E10250022603360350015C49
:1008900002E10250005C04E2D8900332023204D03C
:1008A000052A05C004F0E9D70350015C02E10250BB
:1008B000005C04E30250005E0350015AD8900332FA
:1008C000023204C005F004060550EEE101C0F3FF5A
:1008D0000050E4CF06F0E4CF05F0E4CF04F0E4CF1D
:1008E00003F0E4CF02F0E4CF01F0E4CF00F0E4CF76
:1008F000D9FF1200C40E0001AE6F0A0E0001AF6FE7
:10090000000E0001B06F9A0E0001B16F0A0E0001D7
:10091000B26F000E0001B36F700E0001B46F0A0ECB
:100920000001B56F000E0001B66F0FEE95F0000EDE
:10093000EF6E8BEC05F0000E016EAE0E006E800EB9
:10094000026E0250E56E0150E56E0050E56E2BEC34
:1009500003F0030EE126000E016EB10E006E800E54
:10096000026E0250E56E0150E56E0050E56E2BEC14
:1009700003F0030EE126000E016EB40E006E800E31
:10098000026E0250E56E0150E56E0050E56E2BECF4
:1009900003F0030EE126CEEC01F0120011EEFFF0A1
:1009A00021EEFFF0F86AA68EA69C2E0EF66E0B0EB8
:1009B000F76E000EF86E0900F5CF05F00900F5CFCF
:1009C00006F034D00900F5CF00F00900F5CF01F0B2
:1009D0000900F5CF02F009000900F5CFE9FF090091
:1009E000F5CFEAFF090009000900F5CF03F009007F
:1009F000F5CF04F009000900F6CF07F0F7CF08F0B3
:100A0000F8CF09F000C0F6FF01C0F7FF02C0F8FF01
:100A100003D00900F5CFEEFF0306FBE20406F9E27E
:100A200007C0F6FF08C0F7FF09C0F8FF0506CAE2D5
:100A30000606C8E27AEC04F0FFD7E8AE08D0F3CFA0
:100A4000EAFFEE50EECFF3FFEECFF4FF1200E8BC6A
:100A5000A0EF05F0E9CFF6FFF3CFF7FFF86E09003E
:100A6000F5500900F5CFF3FF0900F5CFF4FF1200B0
:100A7000D9CFE5FFE1CFD9FF00C0E5FF0FEE83F04E
:100A8000EFCF00F000740FEE83F000C0EFFF020E16
:100A9000E4CF00F0E4CFD9FF1200D9CFE5FFE1CFDA
:100AA000D9FF00C0E5FF0FEE83F0EFCF00F000723A
:100AB0000FEE83F000C0EFFFE86AE4CF00F0E4CF70
:100AC000D9FF1200D9CFE5FFE1CFD9FF00C0E5FF84
:100AD0000FEE83F0EFCF00F000700FEE83F000C058
:100AE000EFFF020EE4CF00F0E4CFD9FF1200F2CF07
:100AF000F6FFF29EA69EA69CE9CFA9FFA680A8506D
:100B0000A92AA680A8CFF3FFA92AA680A8CFF4FF20
:100B1000F6BEF28E1200D9CFE5FFE1CFD9FF00017A
:100B2000B76B0001B86BE86AE4CFD9FF120001008F
:100B30003C0B0000B70000000300000000000000B4
:040B400077EF05F056
:020000040030CA
:0100010002FC
:0100030000FC
:020005008381F5
:00000001FF
