:020000040000FA
:10000000FCEF01F04BEC02F0006EF3CF01F0F4CF07
:1000100002F00050040F036E000E0120046E000E6B
:100020000220056E03C0E9FF04C0F3FF055020EC79
:1000300003F0036EF3CF04F0F4CF05F0000EE56E8D
:10004000000EE56E000EE56EF2CFE5FFF29E0500B4
:100050006C0EFD6E000EFE6E000EFF6EE4BEF28EA4
:1000600005C0FBFF04C0FAFF0350F96E030EE12642
:100070000050010F036E000E0120046E000E0220DE
:10008000056E03C0E9FF04C0F3FF055020EC03F048
:10009000066EF3CF07F0F4CF08F006C0E9FF07C003
:1000A000F3FF085020EC03F0066EF3CF07F0F4CF17
:1000B00008F0000EE56E000EE56E000EE56EF2CF64
:1000C000E5FFF29E0500E20EFD6E000EFE6E000ED4
:1000D000FF6EE4BEF28E08C0FBFF07C0FAFF0650B9
:1000E000F96E030EE12603C0E9FF04C0F3FF0550DB
:1000F00020EC03F0036EF3CF04F0F4CF05F0030E11
:100100000326000E0422052203C0E9FF04C0F3FF0A
:10011000055020EC03F0036EF3CF04F0F4CF05F0AC
:100120000250026E0150016E0050006E0250E56EEA
:100130000150E56E0050E56EF2CFE5FFF29E05003E
:100140005C0EFD6E010EFE6E000EFF6EE4BEF28EC2
:1001500005C0FBFF04C0FAFF0350F96E030EE12651
:100160001200D9CFE5FFE1CFD9FF00C0E5FF01C004
:10017000E5FF02C0E5FF03C0E5FF020EDBCF00F0A4
:10018000030EDBCF01F0040EDBCF02F03BEC03F0FB
:100190003BEC03F03BEC03F03BEC03F03BEC03F0F7
:1001A0000FEE96F0EFCF03F003900FEE96F003C042
:1001B000EFFF0FEE96F0EFCF03F003920FEE96F005
:1001C00003C0EFFF0FEE96F0EFCF03F003940FEEB6
:1001D00096F003C0EFFF0FEE95F0000EEF6E0FEEFE
:1001E000C1F00E0EEF6E000EE56E000EE56E380EDD
:1001F000E56E9DEC01F0030EE126000EE56E000EAB
:10020000E56E060EE56E9DEC01F0030EE126000E94
:10021000E56E000EE56E0F0EE56E9DEC01F0030E2F
:10022000E126000EE56E000EE56E030EE56E9DEC18
:1002300001F0030EE126000EE56E000EE56E010EE4
:10024000E56E9DEC01F0030EE126000EE56E000E5A
:10025000E56E800EE56E9DEC01F0030EE126005088
:100260000001876F010EE4CF03F0E4CF02F0E4CF8A
:1002700001F0E4CF00F0E4CFD9FF1200D9CFE5FFC1
:10028000E1CFD9FF00C0E5FF01C0E5FF02C0E5FFF7
:1002900003C0E5FF020EDBCF00F0030EDBCF01F061
:1002A000040EDBCF02F00FEE84F0EFCF03F00380FB
:1002B0000FEE84F003C0EFFF0FEE84F0EFCF03F0FA
:1002C00003940FEE84F003C0EFFF0FEE83F000C045
:1002D000EFFF0FEE84F0EFCF00F000820FEE84F01E
:1002E00000C0EFFF54EC03F00FEE84F0EFCF00F00E
:1002F00000920FEE84F000C0EFFF0FEE84F0EFCF1E
:1003000000F000900FEE84F000C0EFFF0FEE84F0DD
:10031000EFCF00F000940FEE84F000C0EFFF54EC3C
:1003200003F0010EE4CF03F0E4CF02F0E4CF01F0DC
:10033000E4CF00F0E4CFD9FF1200D9CFE5FFE1CF41
:10034000D9FF00C0E5FF01C0E5FF02C0E5FF03C023
:10035000E5FF020EDBCF00F0030EDBCF01F0040E51
:10036000DBCF02F00FEE84F0EFCF03F003900FEE3F
:1003700084F003C0EFFF0FEE84F0EFCF03F003949F
:100380000FEE84F003C0EFFF0FEE83F000C0EFFF2D
:100390000FEE84F0EFCF00F000820FEE84F000C08B
:1003A000EFFF3BEC03F00FEE84F0EFCF00F0009294
:1003B0000FEE84F000C0EFFF0FEE84F0EFCF00F0FF
:1003C00000900FEE84F000C0EFFF0FEE84F0EFCF4F
:1003D00000F000940FEE84F000C0EFFF3BEC03F060
:1003E000010EE4CF03F0E4CF02F0E4CF01F0E4CF5C
:1003F00000F0E4CFD9FF120011EEFFF021EEFFF084
:10040000F86AA68EA69C280EF66E070EF76E000EF2
:10041000F86E0900F5CF05F00900F5CF06F034D0ED
:100420000900F5CF00F00900F5CF01F00900F5CF84
:1004300002F009000900F5CFE9FF0900F5CFEAFF56
:10044000090009000900F5CF03F00900F5CF04F019
:1004500009000900F6CF07F0F7CF08F0F8CF09F050
:1004600000C0F6FF01C0F7FF02C0F8FF03D009008B
:10047000F5CFEEFF0306FBE20406F9E207C0F6FF44
:1004800008C0F7FF09C0F8FF0506CAE20606C8E281
:1004900002EC00F0FFD7D9CFE5FFE1CFD9FF00C0D4
:1004A000E5FF01C0E5FF02C0E5FFB60E0001846F65
:1004B000050E0001856F000E0001866FFE0E000123
:1004C0008E6F050E00018F6F000E0001906FD60E2B
:1004D0000001916F060E0001926F000E0001936FF4
:1004E000000E016E8E0E006E800E026E0050000136
:1004F000816F01500001826F02500001836F000E76
:10050000016E800E006E800E026E02C0F4FF01C00C
:10051000F3FF0050E4CF02F0E4CF01F0E4CF00F0AD
:10052000E4CFD9FF1200D9CFE5FFE1CFD9FF00C05A
:10053000E5FF01C0E5FF02C0E5FF620E00018B6F21
:10054000010E00018C6F000E00018D6F3A0E00014C
:10055000946F030E0001956F000E0001966F7C0EE4
:100560000001976F020E0001986F000E0001996F55
:10057000000E016E940E006E800E026E005000019F
:10058000886F01500001896F025000018A6F000ED0
:10059000016E870E006E800E026E02C0F4FF01C075
:1005A000F3FF0050E4CF02F0E4CF01F0E4CF00F01D
:1005B000E4CFD9FF1200D9CFE5FFE1CFD9FF00C0CA
:1005C000E5FF01C0E5FF02C0E5FF020EDBCF00F052
:1005D000030EDBCF01F0040EDBCF02F00FEE95F03F
:1005E000000EEF6E00500001806F010EE4CF02F0AC
:1005F000E4CF01F0E4CF00F0E4CFD9FF1200D9CF6F
:10060000E5FFE1CFD9FF00C0E5FF01C0E5FF02C073
:10061000E5FF020EDBCF00F0030EDBCF01F0040E8E
:10062000DBCF02F00FEE83F000C0EFFF010EE4CF4E
:1006300002F0E4CF01F0E4CF00F0E4CFD9FF1200E4
:10064000E8AE08D0F3CFEAFFEE50EECFF3FFEECFE7
:10065000F4FF1200E8BC9BEF03F0E9CFF6FFF3CF05
:10066000F7FFF86E0900F5500900F5CFF3FF090018
:10067000F5CFF4FF1200D9CFE5FFE1CFD9FF00C0DD
:10068000E5FF01C0E5FFC80E006E54EC03F000501A
:10069000016E0104006E0050F8E1E4CF01F0E4CFF8
:1006A00000F0E4CFD9FF1200D9CFE5FFE1CFD9FFA9
:1006B00000C0E5FF01C0E5FF190E006E0050016E9D
:1006C0000104006E0050FAE1E4CF01F0E4CF00F045
:1006D000E4CFD9FF1200D9CFE5FFE1CFD9FF00C0A9
:1006E000E5FF0FEE83F0EFCF00F0001E0FEE83F07A
:1006F00000C0EFFF010EE4CF00F0E4CFD9FF1200FD
:10070000F2CFF6FFF29EA69EA69CE9CFA9FFA68097
:10071000A850A92AA680A8CFF3FFA92AA680A8CF0F
:10072000F4FFF6BEF28E120001003A0700009A00B4
:0C07300000000100000080EF03F000005A
:020000040030CA
:0100010002FC
:0100030000FC
:020005008381F5
:00000001FF
